:020000040806EC
:10000000505100206D110608BD110608AD0206080A
:10001000BD110608BD110608BD110608000000004C
:10002000000000000000000000000000BD110608F4
:10003000BD11060800000000F7010608B1FE070820
:10004000BD110608BD110608BD110608BD11060840
:10005000BD110608BD11060823110808391108084A
:100060004F110808651108087B110808BD11060822
:10007000BD110608BD110608BD110608BD11060810
:10008000BD110608BD110608BD110608F5F60708E2
:10009000E5F7070801F807081DF807089111080897
:1000A000BD110608BD110608BD110608BD110608E0
:1000B00019170808BD110608BD110608BD1106086C
:1000C000BD110608BD110608BD110608BD110608C0
:1000D000BD11060881400808BD110608BD110608BB
:1000E000C3110808BD110608BD110608BD11060898
:1000F000BD110608BD110608BD110608BD11060890
:10010000BD11060895300808BD110608BD11060886
:10011000BD110608BD110608BD110608BD1106086F
:10012000BD110608BD110608BD110608BD1106085F
:10013000BD110608E1040808BD1106085DF90708AD
:100140004DFA070869FA070885FA0708BD1106087D
:10015000BD110608BD110608BD110608BD1106082F
:10016000BD110608BD110608BD110608BD1106081F
:10017000BD110608BD110608BD11060800000000EB
:10018000BD110608BD11060810B5054C237833B91A
:10019000044B13B10448AFF300800123237010BD5A
:1001A000605100200000000058050D0808B5034B01
:1001B0001BB103490348AFF3008008BD00000000F5
:1001C0006451002058050D08EFF3108072B6704797
:1001D00080F310887047444A1368012B04D04FF015
:1001E00001031360414A1060414A116041484FF0D9
:1001F000805101607047EFF3108272B63A4801688F
:1002000051B34FF0000101603848016891B1EFF33C
:1002100009811EF0100F08BF21ED108B21E9F00FAE
:100220004FF000041EF0100F08BF012441F8044DE8
:10023000006801602E490968096808C9B1E8F00F33
:10024000002B18BFB1EC108B81F309884EF0100E13
:10025000002B18BF2EF0100E82F310884EF0040E03
:10026000704723490860EFF3148222F0040282F3FE
:1002700014881E494FF0000008601B494FF0010030
:1002800008601D481D49D0F8002041EA02010160C4
:1002900018484FF08051016019480068006800BF9D
:1002A00080F3088861B662B6704700BFEFF308803C
:1002B0001EF0040F01D0EFF3098020E9F00F40F8A1
:1002C00004ED40F804ED1EF0040F02D080F309881D
:1002D00001E080F3088800B548F0EEFE5DF804EB1D
:1002E0004EF0040E70470000947201208C720120C1
:1002F0009072012004ED00E020ED00E00000FFFF1F
:1003000008ED00E000000000000000000000000018
:1003100001F0FF01102A2BDB10F0070F08D010F8B6
:10032000013B013A8B422DD010F0070F42B3F6D1BA
:10033000F0B441EA012141EA014122F007047FF0D3
:1003400000070023F0E80256083C85EA010586EA2A
:10035000010685FA47F5A3FA87F586FA47F6A5FA66
:1003600087F68EB9EED1F0BC01F0FF0102F0070272
:1003700032B110F8013B013A83EA010313B1F8D11D
:100380000020704701387047002D06BF35460338FE
:10039000073815F0010F07D1013015F4807F02BF37
:1003A000013015F4C03F0130F0BC0138704700BF88
:1003B00010F8012B11F8013B012A28BF9A42F7D00F
:1003C000D01A7047034613F8012B002AFBD1181AE4
:1003D0000138704781F0004102E000BF83F0004324
:1003E00030B54FEA41044FEA430594EA050F08BFD0
:1003F00090EA020F1FBF54EA000C55EA020C7FEA94
:10040000645C7FEA655C00F0E2804FEA5454D4EB10
:100410005555B8BF6D420CDD2C4480EA020281EADA
:10042000030382EA000083EA010180EA020281EA12
:100430000303362D88BF30BD11F0004F4FEA013164
:100440004FF4801C4CEA113102D0404261EB410173
:1004500013F0004F4FEA03334CEA133302D05242F9
:1004600063EB430394EA050F00F0A780A4F10104B5
:10047000D5F1200E0DDB02FA0EFC22FA05F28018EF
:1004800041F1000103FA0EF2801843FA05F35941D5
:100490000EE0A5F120050EF1200E012A03FA0EFC54
:1004A00028BF4CF0020C43FA05F3C01851EBE3717E
:1004B00001F0004507D54FF0000EDCF1000C7EEB9B
:1004C00000006EEB0101B1F5801F1BD3B1F5001FD9
:1004D0000CD349085FEA30004FEA3C0C04F10104F8
:1004E0004FEA445212F5800F80F09A80BCF1004F21
:1004F00008BF5FEA500C50F1000041EB045141EAA3
:10050000050130BD5FEA4C0C404141EB0101013C6B
:1005100028BFB1F5801FE9D291F0000F04BF01465A
:100520000020B1FA81F308BF2033A3F10B03B3F12C
:1005300020020CDA0C3208DD02F1140CC2F10C02BC
:1005400001FA0CF021FA02F10CE002F11402D8BF1A
:10055000C2F1200C01FA02F120FA0CFCDCBF41EAE6
:100560000C019040E41AA2BF01EB0451294330BDB5
:100570006FEA04041F3C1CDA0C340EDC04F1140492
:10058000C4F1200220FA04F001FA02F340EA030069
:1005900021FA04F345EA030130BDC4F10C04C4F1AF
:1005A000200220FA02F001FA04F340EA030029468F
:1005B00030BD21FA04F0294630BD94F0000F83F4D9
:1005C000801306BF81F480110134013D4EE77FEABC
:1005D000645C18BF7FEA655C29D094EA050F08BF08
:1005E00090EA020F05D054EA000C04BF19461046E9
:1005F00030BD91EA030F1EBF0021002030BD5FEA2D
:10060000545C05D14000494128BF41F0004130BD54
:1006100014F580043CBF01F5801130BD01F00045A8
:1006200045F0FE4141F470014FF0000030BD7FEA1B
:10063000645C1ABF194610467FEA655C1CBF0B4616
:10064000024650EA013406BF52EA033591EA030F2D
:1006500041F4002130BD00BF90F0000F04BF002125
:10066000704730B54FF4806404F132044FF0000558
:100670004FF0000150E700BF90F0000F04BF0021D1
:10068000704730B54FF4806404F1320410F0004537
:1006900048BF40424FF000013EE700BF42004FEA32
:1006A000E2014FEA31014FEA02701FBF12F07F43AF
:1006B00093F07F4F81F06051704732F07F4208BF66
:1006C000704793F07F4F04BF41F40021704730B56D
:1006D0004FF4607401F0004521F000411CE700BFB9
:1006E00050EA010208BF704730B54FF000050AE03C
:1006F00050EA010208BF704730B511F0004502D53D
:10070000404261EB41014FF4806404F132045FEA3E
:10071000915C3FF4D8AE4FF003025FEADC0C18BFE7
:1007200003325FEADC0C18BF033202EBDC02C2F1D9
:10073000200300FA03FC20FA02F001FA03FE40EA6B
:100740000E0021FA02F11444BDE600BF70B54FF06F
:10075000FF0C4CF4E06C1CEA11541DBF1CEA13554D
:1007600094EA0C0F95EA0C0F00F0DEF82C4481EAB5
:10077000030621EA4C5123EA4C5350EA013518BFD5
:1007800052EA033541F4801143F4801338D0A0FBC2
:1007900002CE4FF00005E1FB02E506F00042E0FB6F
:1007A00003E54FF00006E1FB03569CF0000F18BF75
:1007B0004EF0010EA4F1FF04B6F5007F64F540741D
:1007C00004D25FEA4E0E6D4146EB060642EAC621B0
:1007D00041EA55514FEAC52040EA5E504FEACE2E1D
:1007E000B4F1FD0C88BFBCF5E06F1ED8BEF1004F20
:1007F00008BF5FEA500E50F1000041EB045170BD9C
:1008000006F0004646EA010140EA020081EA0301DF
:10081000B4EB5C04C2BFD4EB0C0541EA045170BDDB
:1008200041F480114FF0000E013C00F3AB8014F155
:10083000360FDEBF002001F0004170BDC4F100049E
:10084000203C35DA0C341BDC04F11404C4F120051F
:1008500000FA05F320FA04F001FA05F240EA02007A
:1008600001F0004221F0004110EBD37021FA04F6B0
:1008700042EB06015EEA430E08BF20EAD37070BD6A
:10088000C4F10C04C4F1200500FA04F320FA05F0C9
:1008900001FA04F240EA020001F0004110EBD370CB
:1008A00041F100015EEA430E08BF20EAD37070BD3B
:1008B000C4F1200500FA05F24EEA020E20FA04F314
:1008C00001FA05F243EA020321FA04F001F00041C3
:1008D00021FA04F220EA020000EBD3705EEA430E34
:1008E00008BF20EAD37070BD94F0000F0FD101F063
:1008F0000046400041EB010111F4801F08BF013C9C
:10090000F7D041EA060195F0000F18BF704703F0D9
:100910000046520043EB030313F4801F08BF013D60
:10092000F7D043EA0603704794EA0C0F0CEA13551C
:1009300018BF95EA0C0F0CD050EA410618BF52EAD6
:100940004306D1D181EA030101F000414FF00000DC
:1009500070BD50EA410606BF1046194652EA4306EA
:1009600019D094EA0C0F02D150EA013613D195EA5E
:100970000C0F05D152EA03361CBF104619460AD1A6
:1009800081EA030101F0004141F0FE4141F47001B0
:100990004FF0000070BD41F0FE4141F4780170BDA0
:1009A00070B54FF0FF0C4CF4E06C1CEA11541DBF05
:1009B0001CEA135594EA0C0F95EA0C0F00F0A7F807
:1009C000A4EB050481EA030E52EA03354FEA013134
:1009D00000F088804FEA03334FF0805545EA131347
:1009E00043EA12634FEA022245EA111545EA10650F
:1009F0004FEA00260EF000419D4208BF964244F1A6
:100A0000FD0404F5407402D25B084FEA3202B61AC4
:100A100065EB03055B084FEA32024FF480104FF498
:100A2000002CB6EB020E75EB030E22BFB61A75460C
:100A300040EA0C005B084FEA3202B6EB020E75EB9F
:100A4000030E22BFB61A754640EA5C005B084FEA07
:100A50003202B6EB020E75EB030E22BFB61A7546D4
:100A600040EA9C005B084FEA3202B6EB020E75EBDF
:100A7000030E22BFB61A754640EADC0055EA060EA0
:100A800018D04FEA051545EA16754FEA06164FEAE3
:100A9000C30343EA52734FEAC2025FEA1C1CC0D18F
:100AA00011F4801F0BD141EA00014FF000004FF01C
:100AB000004CB6E711F4801F04BF01430020B4F1DD
:100AC000FD0C88BFBCF5E06F3FF6AFAEB5EB030C95
:100AD00004BFB6EB020C5FEA500C50F1000041EB92
:100AE000045170BD0EF0004E4EEA113114EB5C045F
:100AF000C2BFD4EB0C0541EA045170BD41F4801132
:100B00004FF0000E013C90E645EA060E8DE60CEA39
:100B1000135594EA0C0F08BF95EA0C0F3FF43BAF56
:100B200094EA0C0F0AD150EA01347FF434AF95EA0D
:100B30000C0F7FF425AF104619462CE795EA0C0FF1
:100B400006D152EA03353FF4FDAE1046194622E7BE
:100B500050EA410618BF52EA43067FF4C5AE50EA98
:100B600041047FF40DAF52EA43057FF4EBAE12E788
:100B70004FF0FF3C06E000BF4FF0010C02E000BF69
:100B80004FF0010C4DF804CD4FEA410C7FEA6C5C4C
:100B90004FEA430C18BF7FEA6C5C1BD001B050EAEF
:100BA000410C0CBF52EA430C91EA030F02BF90EADA
:100BB000020F0020704710F1000F91EA030F58BF99
:100BC000994208BF90422CBFD8176FEAE37040F0FB
:100BD000010070474FEA410C7FEA6C5C02D150EA99
:100BE000013C07D14FEA430C7FEA6C5CD6D152EA54
:100BF000033CD3D05DF8040B704700BF8446104619
:100C000062468C461946634600E000BF01B5FFF717
:100C1000B7FF002848BF10F1000F01BD4DF808EDE7
:100C2000FFF7F4FF0CBF012000205DF808FB00BFB8
:100C30004DF808EDFFF7EAFF34BF012000205DF812
:100C400008FB00BF4DF808EDFFF7E0FF94BF01205F
:100C500000205DF808FB00BF4DF808EDFFF7CEFF60
:100C600094BF012000205DF808FB00BF4DF808ED9F
:100C7000FFF7C4FF34BF012000205DF808FB00BF70
:100C80004FEA410C7FEA6C5C02D150EA013C0AD188
:100C90004FEA430C7FEA6C5C02D152EA033C02D17A
:100CA0004FF0000070474FF0010070474FEA4102DB
:100CB00012F5001215D211D56FF47873B3EB6252AE
:100CC00012D94FEAC12343F0004343EA505311F0D5
:100CD000004F23FA02F018BF404270474FF0000067
:100CE000704750EA013005D111F0004008BF6FF0A5
:100CF000004070474FF00000704700BF4FEA4102CC
:100D0000B2F1E04324BFB3F5001CDCF1FE5C0DD969
:100D100001F0004C4FEAC0024CEA5070B2F1004FB3
:100D200040EB830008BF20F00100704711F0804FB6
:100D300021D113F13872BCBF01F00040704741F47B
:100D400080114FEA5252C2F11802C2F1200C10FA7F
:100D50000CF320FA02F018BF40F001004FEAC12363
:100D60004FEAD32303FA0CFC40EA0C0023FA02F307
:100D70004FEA4303CCE77FEA625307D150EA0133DD
:100D80001EBF4FF0FE4040F44000704701F00040AD
:100D900040F0FE4040F40000704700BF7BB972B9DC
:100DA0000029BEBF00204FF0004106E008BF002828
:100DB0001CBF6FF000414FF0FF3000F0BFB9ADF144
:100DC000080C6DE904CE002909DB002B1ADB00F0CA
:100DD0004DF8DDF804E0DDE9022304B0704740423D
:100DE00061EB4101002B1BDB00F040F8DDF804E073
:100DF000DDE9022304B0404261EB4101524263EB62
:100E000043037047524263EB430300F02FF8DDF8D1
:100E100004E0DDE9022304B0404261EB4101704788
:100E2000524263EB430300F021F8DDF804E0DDE912
:100E3000022304B0524263EB4303704753B94AB9EB
:100E4000002908BF00281CBF4FF0FF314FF0FF30D2
:100E500000F074B9ADF1080C6DE904CE00F006F8AD
:100E6000DDF804E0DDE9022304B070472DE9F04726
:100E7000089D04468E46002B4DD18A42944669D97E
:100E8000B2FA82F252B101FA02F3C2F1200120FA61
:100E900001F10CFA02FC41EA030E94404FEA1C48AF
:100EA000210CBEFBF8F61FFA8CF708FB16E341EAAB
:100EB000034306FB07F199420AD91CEB030306F131
:100EC000FF3080F01F81994240F21C81023E634452
:100ED0005B1AA4B2B3FBF8F008FB103344EA0344F6
:100EE00000FB07F7A7420AD91CEB040400F1FF330B
:100EF00080F00A81A74240F207816444023840EA48
:100F00000640E41B00261DB1D4400023C5E9004380
:100F10003146BDE8F0878B4209D9002D00F0EF8003
:100F20000026C5E9000130463146BDE8F087B3FA36
:100F300083F6002E4AD18B4202D3824200F2F9801E
:100F4000841A61EB030301209E46002DE0D0C5E921
:100F5000004EDDE702B9FFDEB2FA82F2002A40F06D
:100F60009280A1EB0C014FEA1C471FFA8CFE012670
:100F7000200CB1FBF7F307FB131140EA01410EFB14
:100F800003F0884208D91CEB010103F1FF3802D2BB
:100F9000884200F2CB804346091AA4B2B1FBF7F0B5
:100FA00007FB101144EA01440EFB00FEA64508D9D8
:100FB0001CEB040400F1FF3102D2A64500F2BB8015
:100FC0000846A4EB0E0440EA03409CE7C6F1200764
:100FD000B34022FA07FC4CEA030C20FA07F401FAAA
:100FE00006F31C43F9404FEA1C4900FA06F3B1FB33
:100FF000F9F8200C1FFA8CFE09FB181140EA014198
:1010000008FB0EF0884202FA06F20BD91CEB010134
:1010100008F1FF3A80F08880884240F28580A8F18C
:1010200002086144091AA4B2B1FBF9F009FB1011DE
:1010300044EA014100FB0EFE8E4508D91CEB01017C
:1010400000F1FF346CD28E456AD90238614440EA1F
:101050000840A0FB0294A1EB0E01A142C846A6469F
:1010600056D353D05DB1B3EB080261EB0E0101FA28
:1010700007F722FA06F3F1401F43C5E90071002685
:101080003146BDE8F087C2F12003D8400CFA02FCDB
:1010900021FA03F3914001434FEA1C471FFA8CFEEB
:1010A000B3FBF7F007FB10360B0C43EA064300FBDB
:1010B0000EF69E4204FA02F408D91CEB030300F179
:1010C000FF382FD29E422DD9023863449B1B89B230
:1010D000B3FBF7F607FB163341EA034106FB0EF3B9
:1010E0008B4208D91CEB010106F1FF3816D28B4266
:1010F00014D9023E6144C91A46EA004638E72E4632
:10110000284605E70646E3E61846F8E64B45A9D229
:10111000B9EB020864EB0C0E0138A3E74646EAE798
:10112000204694E74046D1E7D0467BE7023B614446
:1011300032E7304609E76444023842E7704700BFAF
:1011400080B400AF074BD3F88830064A43F47003ED
:10115000C2F88830034B044A9A6000BFBD465DF870
:10116000047B704700ED00E000000608DFF834D093
:10117000002103E00C4B5B58435004310B480C4BEF
:1011800042189A42F6D30B4A02E0002342F8043B8D
:10119000094B9A42F9D3FFF7D3FF2FF034F848F008
:1011A00041F970475051002060050D0800000020F3
:1011B000504F002060510020A87D0120FEE7000074
:1011C00080B500AF0E4B1B680D4A43F400731360EB
:1011D0000B4B1B680A4A43F480631360084B1B687F
:1011E000074A43F480731360032000F09DFE002043
:1011F0001EF091FE1CF0D6FC0023184680BD00BFF7
:10120000003C024080B400AF064B1B781A46064BE8
:101210001B681344044A136000BFBD465DF8047B9D
:10122000704700BF080000207C51002080B584B0CA
:1012300000AF78607B68002B01D10123EDE07B6873
:1012400093F82030DBB2002B02D178681CF0D2FC7E
:101250007B681B681A687B681B6822F002021A60B0
:101260001EF032FEF86012E01EF02EFE0246FB6811
:10127000D31A0A2B0BD97B685B6A43F400327B6874
:101280005A627B68052283F820200123C5E07B6831
:101290001B685B6803F00203002BE5D17B681B68C9
:1012A0001A687B681B6842F001021A601EF00CFE8F
:1012B000F86012E01EF008FE0246FB68D31A0A2B03
:1012C0000BD97B685B6A43F400327B685A627B68A7
:1012D000052283F8202001239FE07B681B685B6860
:1012E00003F00103002BE5D07B681B7E012B08D1A6
:1012F0007B681B681A687B681B6842F080021A6072
:1013000007E07B681B681A687B681B6822F0800214
:101310001A607B685B7E012B08D17B681B681A68AA
:101320007B681B6842F040021A6007E07B681B681C
:101330001A687B681B6822F040021A607B689B7EFB
:10134000012B08D17B681B681A687B681B6842F018
:1013500020021A6007E07B681B681A687B681B68BC
:1013600022F020021A607B68DB7E012B08D17B68AB
:101370001B681A687B681B6822F010021A6007E07D
:101380007B681B681A687B681B6842F010021A6051
:101390007B681B7F012B08D17B681B681A687B6800
:1013A0001B6842F008021A6007E07B681B681A6835
:1013B0007B681B6822F008021A607B685B7F012B48
:1013C00008D17B681B681A687B681B6842F00402BE
:1013D0001A6007E07B681B681A687B681B6822F04C
:1013E00004021A607B689A687B68DB681A437B6832
:1013F0001B691A437B685B6942EA03017B685B688F
:101400005A1E7B681B680A43DA617B6800225A62B5
:101410007B68012283F82020002318461037BD4640
:1014200080BD000080B487B000AF786039607B6811
:101430001B687B617B6893F82030FB74FB7C012B7D
:1014400003D0FB7C022B40F0BE80654B7B617B6947
:10145000D3F8003243F001027B69C3F800227B69B4
:10146000D3F8003223F47C527B69C3F800227B69F5
:10147000D3F800223B685B6A1B021A437B69C3F8FE
:1014800000223B685B6903F01F03012202FA03F3A9
:10149000FB607B69D3F81C22FB68DB431A407B6945
:1014A000C3F81C223B68DB69002B23D17B69D3F88E
:1014B0000C22FB68DB431A407B69C3F80C223B68B3
:1014C000DB6819043B685B689BB23A685269194350
:1014D0007B69483243F832103B689B6819043B68CB
:1014E0001B689AB23B685B690A4379694833DB0041
:1014F0000B445A603B68DB69012B22D17B69D3F82E
:101500000C22FB681A437B69C3F80C223B681B68FA
:1015100019043B685B689BB23A68526919437B695E
:10152000483243F832103B689B6819043B68DB681B
:101530009AB23B685B690A4379694833DB000B4424
:101540005A603B689B69002B09D17B69D3F8042260
:10155000FB68DB431A407B69C3F8042207E07B6920
:10156000D3F80422FB681A437B69C3F804223B6862
:101570001B69002B09D17B69D3F81422FB68DB437C
:101580001A407B69C3F8142207E07B69D3F8142260
:10159000FB681A437B69C3F814223B681B6A012B62
:1015A00007D17B69D3F81C22FB681A437B69C3F817
:1015B0001C227B69D3F8003223F001027B69C3F857
:1015C0000022002306E07B685B6A43F480227B688C
:1015D0005A62012318461C37BD465DF8047B7047EC
:1015E0000064004080B584B000AF78607B6893F8F9
:1015F0002030DBB2012B2ED17B68022283F8202021
:101600007B681B681A687B681B6822F001021A60FD
:101610001EF05AFCF86012E01EF056FC0246FB6811
:10162000D31A0A2B0BD97B685B6A43F400327B68C0
:101630005A627B68052283F82020012312E07B6830
:101640001B685B6803F00103002BE5D17B68002277
:101650005A62002306E07B685B6A43F400227B68E1
:101660005A62012318461037BD4680BD80B487B04A
:1016700000AFF860B9607A603B60FB6893F8203097
:10168000FB75FB7D012B03D0FB7D022B40F0F3802B
:10169000BB68002B0ED1FB681B68DB6803F00303FB
:1016A000002B16D1FB685B6A43F40012FB685A6298
:1016B0000123E7E0FB681B681B6903F00303002BB1
:1016C00007D1FB685B6A43F40012FB685A6201238E
:1016D000D8E0FB681A68BB681B331B0113441B6806
:1016E00003F004027B689A607B689B68002B0CD136
:1016F000FB681A68BB681B331B0113441B685B0D36
:10170000C3F30A027B681A600BE0FB681A68BB68C7
:101710001B331B0113441B68DB0823F060427B680A
:101720005A60FB681A68BB681B331B0113441B68B3
:1017300003F002027B68DA60FB681A68BB681B333F
:101740001B01134404331B6803F00F027B681A610A
:10175000FB681A68BB681B331B01134404331B6806
:101760001B0ADAB27B689A61FB681A68BB681B3394
:101770001B01134404331B681B0C9AB27B685A612B
:10178000FB681A68BB681B01134403F5DC731B6814
:10179000DAB23B681A70FB681A68BB681B01134415
:1017A00003F5DC731B681A0A3B680133D2B21A7066
:1017B000FB681A68BB681B01134403F5DC731B68E4
:1017C0001A0C3B680233D2B21A70FB681A68BB6805
:1017D0001B01134403F5DC731B681A0E3B680333CB
:1017E000D2B21A70FB681A68BB681B01134403F578
:1017F000DE731A683B680433D2B21A70FB681A6849
:10180000BB681B01134403F5DE731B681A0A3B68AF
:101810000533D2B21A70FB681A68BB681B01134407
:1018200003F5DE731B681A0C3B680633D2B21A70DC
:10183000FB681A68BB681B01134403F5DE731B6861
:101840001A0E3B680733D2B21A70BB68002B08D15E
:10185000FB681B68DA68FB681B6842F02002DA60EC
:1018600007E0FB681B681A69FB681B6842F02002EE
:101870001A61002306E0FB685B6A43F48022FB6880
:101880005A62012318461C37BD465DF8047B704739
:1018900080B485B000AF786039600023FB607B685E
:1018A00093F82030FB72FB7A012B02D0FB7A022BDB
:1018B0000FD13B68002B06D17B681B68DB6803F007
:1018C0000303FB6005E07B681B681B6903F00303EF
:1018D000FB60FB6818461437BD465DF8047B704713
:1018E00080B58AB000AF786000237B627B681B689C
:1018F0005B693B627B681B685B68FB617B681B689C
:101900009B68BB617B681B68DB687B617B681B68CD
:101910001B693B617B681B689B69FB603B6A03F04A
:101920000103002B7CD0BB6903F00103002B23D003
:101930007B681B6801229A60BB6903F00203002BDD
:1019400003D0786800F083F916E0BB6903F0040364
:10195000002B04D07B6A43F400637B620CE0BB691C
:1019600003F00803002B04D07B6A43F480537B62AE
:1019700002E0786800F089F9BB6903F48073002BFA
:1019800024D07B681B684FF480729A60BB6903F4B3
:101990000073002B03D0786800F063F916E0BB6990
:1019A00003F48063002B04D07B6A43F400537B6212
:1019B0000CE0BB6903F40063002B04D07B6A43F4A2
:1019C00080437B6202E0786800F069F9BB6903F448
:1019D0008033002B24D07B681B684FF480329A60E0
:1019E000BB6903F40033002B03D0786800F043F99F
:1019F00016E0BB6903F48023002B04D07B6A43F418
:101A000000437B620CE0BB6903F40023002B04D08D
:101A10007B6A43F480337B6202E0786800F049F926
:101A20003B6A03F00803002B0CD07B6903F0100322
:101A3000002B07D07B6A43F400737B627B681B68D2
:101A40001022DA603B6A03F00403002B0BD07B69A1
:101A500003F00803002B06D07B681B680822DA60BD
:101A6000786800F03AF93B6A03F00203002B09D0D2
:101A70007B681B68DB6803F00303002B02D07868E7
:101A800000F021F93B6A03F04003002B0CD03B69C6
:101A900003F01003002B07D07B6A43F480637B6262
:101AA0007B681B6810221A613B6A03F02003002B3D
:101AB0000BD03B6903F00803002B06D07B681B6842
:101AC00008221A61786800F01CF93B6A03F01003E1
:101AD000002B09D07B681B681B6903F00303002BF4
:101AE00002D0786800F003F93B6A03F40033002B5E
:101AF0000BD0FB6903F01003002B06D07B681B683A
:101B000010225A60786800F006F93B6A03F48033CB
:101B1000002B0BD0FB6903F00803002B06D07B6879
:101B20001B6808225A60786800F0FFF83B6A03F4EB
:101B30000043002B7BD0FB6903F00403002B72D021
:101B40003B6A03F48073002B08D0FB6803F00103A9
:101B5000002B03D07B6A43F001037B623B6A03F4F2
:101B60000073002B08D0FB6803F00203002B03D0A6
:101B70007B6A43F002037B623B6A03F48063002BC1
:101B800008D0FB6803F00403002B03D07B6A43F00A
:101B900004037B623B6A03F40063002B43D0FB68C1
:101BA00003F07003002B3ED0FB6803F07003602B42
:101BB0002BD0602B2ED8502B22D0502B2AD8402B44
:101BC00019D0402B26D8302B10D0302B22D8102BF8
:101BD00002D0202B05D01DE07B6A43F008037B6216
:101BE00019E07B6A43F010037B6214E07B6A43F0E8
:101BF00020037B620FE07B6A43F040037B620AE0D4
:101C00007B6A43F080037B6205E07B6A43F4807368
:101C10007B6200E000BF7B681B689A697B681B6879
:101C200022F070029A617B681B6804225A607B6A0A
:101C3000002B08D07B685A6A7B6A1A437B685A6219
:101C400078681DF0BFFF00BF2837BD4680BD80B457
:101C500083B000AF786000BF0C37BD465DF8047BF1
:101C6000704780B483B000AF786000BF0C37BD46CA
:101C70005DF8047B704780B483B000AF786000BF2C
:101C80000C37BD465DF8047B704780B483B000AF6D
:101C9000786000BF0C37BD465DF8047B704780B4A8
:101CA00083B000AF786000BF0C37BD465DF8047BA1
:101CB000704780B483B000AF786000BF0C37BD467A
:101CC0005DF8047B704780B483B000AF786000BFDC
:101CD0000C37BD465DF8047B704780B483B000AF1D
:101CE000786000BF0C37BD465DF8047B704780B458
:101CF00083B000AF786000BF0C37BD465DF8047B51
:101D0000704780B483B000AF786000BF0C37BD4629
:101D10005DF8047B704780B483B000AF786000BF8B
:101D20000C37BD465DF8047B704780B483B000AFCC
:101D3000786000BF0C37BD465DF8047B704700003B
:101D400080B485B000AF78607B6803F00703FB6068
:101D50000C4BDB68BB60BA684FF6FF031340BB60F7
:101D6000FB681A02BB68134343F0BF6343F40033BC
:101D7000BB60044ABB68D36000BF1437BD465DF842
:101D8000047B704700ED00E080B400AF044BDB68DB
:101D90001B0A03F007031846BD465DF8047B704735
:101DA00000ED00E080B483B000AF0346FB7197F90B
:101DB0000730002B0BDBFB7903F01F02074997F973
:101DC00007305B09012000FA02F241F8232000BF2E
:101DD0000C37BD465DF8047B704700BF00E100E0B2
:101DE00080B483B000AF0346FB7197F90730002B36
:101DF00012DBFB7903F01F020A4997F907305B09F0
:101E0000012000FA02F2203341F82320BFF34F8F64
:101E100000BFBFF36F8F00BF00BF0C37BD465DF83A
:101E2000047B704700E100E080B483B000AF03465C
:101E30003960FB7197F90730002B0ADB3B68DAB297
:101E40000C4997F907301201D2B20B4483F80023F2
:101E50000AE03B68DAB20849FB7903F00F03043B60
:101E60001201D2B20B441A7600BF0C37BD465DF8A2
:101E7000047B704700E100E000ED00E080B489B031
:101E800000AFF860B9607A60FB6803F00703FB619C
:101E9000FB69C3F10703042B28BF0423BB61FB6963
:101EA0000433062B02D9FB69033B00E000237B616E
:101EB0004FF0FF32BB6902FA03F3DA43BB681A4002
:101EC0007B699A404FF0FF317B6901FA03F3D943F4
:101ED0007B680B40134318462437BD465DF8047BEE
:101EE0007047000080B582B000AF78607B68013B2E
:101EF000B3F1807F01D301230FE00A4A7B68013BE5
:101F000053600F214FF0FF30FFF78EFF054B00228B
:101F10009A60044B07221A60002318460837BD4612
:101F200080BD00BF10E000E080B582B000AF7860F7
:101F30007868FFF705FF00BF0837BD4680BD80B554
:101F400086B000AF0346B9607A60FB7300237B6103
:101F5000FFF71AFF78617A68B9687869FFF78EFF32
:101F6000024697F90F3011461846FFF75DFF00BF94
:101F70001837BD4680BD80B582B000AF0346FB7107
:101F800097F907301846FFF70DFF00BF0837BD4629
:101F900080BD80B582B000AF0346FB7197F9073072
:101FA0001846FFF71DFF00BF0837BD4680BD80B54E
:101FB00082B000AF78607868FFF794FF0346184658
:101FC0000837BD4680BD000080B483B000AF7860A4
:101FD0007B68042B06D1094B1B68084A43F00403B5
:101FE000136005E0054B1B68044A23F004031360EB
:101FF00000BF0C37BD465DF8047B704710E000E081
:1020000080B586B000AF786000237B611DF05CFF77
:1020100038617B68002B01D1012399E07B680022A5
:1020200083F834207B68022283F835207B681B68A4
:102030001A687B681B6822F001021A600FE01DF02D
:1020400043FF02463B69D31A052B08D97B6820223F
:102050005A657B68032283F83520032378E07B6888
:102060001B681B6803F00103002BE8D17B681B6829
:102070001B687B617A69384B13407B617B685A68C7
:102080007B689B681A437B68DB681A437B681B6923
:102090001A437B685B691A437B689B691A437B68B8
:1020A000DB691A437B681B6A13437A6913437B61BC
:1020B0007B685B6A042B07D17B68DA6A7B681B6BE1
:1020C00013437A6913437B617B681B687A691A60E2
:1020D0007B681B685B697B617B6923F007037B611D
:1020E0007B685B6A7A6913437B617B685B6A042B5C
:1020F00017D17B689B6A7A6913437B617B68DB6AD3
:10210000002B0ED0786800F07FF90346002B08D032
:102110007B6840225A657B68012283F835200123C1
:1021200016E07B681B687A695A61786800F036F9B6
:102130000346FB607B68DB6D3F229A40FB689A6038
:102140007B6800225A657B68012283F835200023D2
:1021500018461837BD4680BD3F8010F080B584B06A
:1021600000AF78607B68002B01D1012350E07B68D1
:1021700093F83530DBB2022B01D1022348E07B68B3
:102180001B681A687B681B6822F001021A607B6872
:102190001B6800221A607B681B6800225A607B68FB
:1021A0001B6800229A607B681B680022DA607B68EB
:1021B0001B6800221A617B681B6821225A617868BB
:1021C00000F0ECF80346FB607B680022DA637B6872
:1021D00000221A647B6800225A647B6800229A6499
:1021E0007B680022DA647B6800221A657B68DB6DFD
:1021F0003F229A40FB689A607B6800225A657B68A0
:10220000002283F835207B68002283F834200023E5
:1022100018461037BD4680BD80B586B000AFF86067
:10222000B9607A603B600023FB75FB6893F834303B
:10223000012B01D1022326E0FB68012283F8342020
:10224000FB6893F83530DBB2012B15D1FB68022215
:1022500083F83520FB6800225A653B687A68B968C4
:10226000F86800F06CF8FB681B681A68FB681B686C
:1022700042F001021A6005E0FB68002283F8342076
:102280000223FB75FB7D18461837BD4680BD80B51F
:1022900086B000AFF860B9607A603B600023FB75E0
:1022A000FB689B6D3B61FB6893F83430012B01D1D7
:1022B000022340E0FB68012283F83420FB6893F896
:1022C0003530DBB2012B2FD1FB68022283F8352099
:1022D000FB6800225A653B687A68B968F86800F0C4
:1022E0002EF8FB68DB6D3F229A403B699A60FB68E1
:1022F0001B681A68FB681B6842F016021A60FB68CC
:102300001B6C002B07D0FB681B681A68FB681B68F6
:1023100042F008021A60FB681B681A68FB681B68B9
:1023200042F001021A6005E0FB68002283F83420C5
:102330000223FB75FB7D18461837BD4680BD80B46F
:1023400085B000AFF860B9607A603B60FB681B68DD
:102350001A68FB681B6822F480221A60FB681B68FD
:102360003A685A60FB689B68402B08D1FB681B6881
:102370007A689A60FB681B68BA68DA6007E0FB68F5
:102380001B68BA689A60FB681B687A68DA6000BFED
:102390001437BD465DF8047B7047000080B485B0FB
:1023A00000AF78607B681B68DBB2103B144AA2FB6D
:1023B00003231B09FB60134AFB6813441B781A466E
:1023C0007B68DA65FB68032B09D97B681B6823F4FB
:1023D0007F7323F003031A1D7B689A6507E07B680F
:1023E0001B6823F47F7323F003037A6893657B688B
:1023F0009B6D18461437BD465DF8047B704700BFDF
:10240000ABAAAAAA90420C0880B485B000AF78604D
:102410000023FB737B689B6ABB607B689B69002B16
:102420001FD1BB68032B56D801A252F823F000BF7E
:10243000412406085324060841240608D724060828
:102440007B68DB6A03F08073002B46D00123FB73AB
:1024500043E07B68DB6AB3F1C07F40D10123FB73AB
:102460003DE07B689B69B3F5005F21D1BB68032B1E
:1024700037D801A252F823F0892406088F240608D1
:1024800089240608A12406080123FB7330E07B6839
:10249000DB6A03F08073002B25D00123FB7322E05D
:1024A0007B68DB6AB3F1C07F1FD10123FB731CE0A3
:1024B000BB68022B03D9BB68032B03D018E00123B0
:1024C000FB7315E07B68DB6A03F08073002B0ED092
:1024D0000123FB730BE000BF0AE000BF08E000BF70
:1024E00006E000BF04E000BF02E000BF00E000BF64
:1024F000FB7B18461437BD465DF8047B704700BF70
:1025000080B588B000AF78600023FB610023FB60DA
:10251000A14BBB6100237B6100233B617B68002BE7
:1025200001D1012382E17B6893F84430DBB2002BB8
:1025300006D17B68002283F8452078681BF03CFCBC
:102540000023BB60954B5B6C944A43F48043536417
:10255000924B5B6C03F48043BB60BB68904B5B6841
:102560008F4A23F4000353608D4B5A687B681B6AC3
:102570008B4913434B607B681B6803F580531B68D2
:102580007A68126843F0010302F5805213601DF06F
:102590009BFC786111E01DF097FC02467B69D31A21
:1025A000B3F5FA7F09D97B68032283F844207B685E
:1025B000002283F84520032338E17B681B6803F57C
:1025C00080531B6803F00103002BE4D17B681B6878
:1025D0001B69FB61FB6923F01C03FB6102F0CAF974
:1025E000B861BB696F4A934208D9BB696E4A93428E
:1025F00004D8FB6943F00803FB6127E0BB696A4A22
:10260000934208D9BB69644A934204D2FB6943F000
:102610000C03FB611AE0BB695F4A934203D3BB69B9
:10262000624A934211D9BB69604A934208D9BB6997
:102630005F4A934204D8FB6943F00403FB6105E061
:10264000FB6943F01003FB6100E000BF7B681B687F
:10265000FA691A614FF400420021786800F01EFC0C
:102660000346002B0BD001233B613969786800F0E9
:10267000ABFC7B68012283F844200123D6E0FF20D5
:102680001DF029FC7B685B68002B00F0A4801DF026
:102690001BFC786107F10C031A460121786800F0F1
:1026A00095FB1DF011FC02467B69D31A41F288327A
:1026B00093420FD901233B613969786800F084FCAB
:1026C0007B68012283F844207B68002283F8452040
:1026D0000323ABE0FB6803F00403002BDAD04FF4D4
:1026E00080520021786800F0D9FB0346002B0BD004
:1026F00001233B613969786800F066FC7B68012240
:1027000083F84420012391E01DF0DEFB786107F19E
:102710000C031A460121786800F058FB1DF0D4FB29
:1027200002467B69D31A41F2883293420FD90123C2
:102730003B613969786800F047FC7B68012283F8C7
:1027400044207B68002283F8452003236EE0FB6869
:1027500003F02003002BDAD007F10C031A461F21E7
:10276000786800F033FB0346002B0BD001233B615C
:102770003969786800F028FC7B68012283F84420DE
:10278000012353E0FB6803F01003002B12D07B6899
:102790004FF40062DA6010E00087930300380240D3
:1027A00000380140FF2C3101BF0E1602FFE0F50595
:1027B0007FD1F0087B680022DA60FB6803F0040335
:1027C000002B03D07B6800229A6026E07B684FF4E0
:1027D00080429A6021E07B68DB68DB089AB27B6804
:1027E0009B685B089BB213439BB21A460021786832
:1027F00000F054FB0346002B0BD001233B613969E9
:10280000786800F0E1FB7B68012283F84420012313
:102810000CE040F6FF701DF05EFB3969786800F04F
:10282000D3FB7B68012283F844200023184620371D
:10283000BD4680BD80B582B000AF78607B68022263
:1028400083F8442078681BF05DFB7B68002283F8E6
:1028500044207B68002283F845200023184608376F
:10286000BD4680BD80B487B000AFF860B9607A60C3
:102870003B6000237B61FB6893F84530012B01D15D
:10288000022351E0FB68012283F84520FB68022205
:1028900083F84420FB68BA68DA6200237B6130E089
:1028A0007B695B01BA6813443B613B694FF480125A
:1028B0001A607B6940F2F45202FB03F37A68134416
:1028C0001A463B699A60FB68DB69002B05D13B69BE
:1028D0001B6843F440023B691A603B68013B7A691C
:1028E0009A4208D27B6901335B01BA6813441A46E5
:1028F0003B69DA6002E0BA683B69DA607B69013300
:102900007B617A693B689A42CAD3FB681A68BB68E4
:1029100002F580521361FB68012283F84420FB68B2
:10292000002283F84520002318461C37BD465DF879
:10293000047B704780B487B000AFF860B9607A60FC
:102940003B6000237B61FB6893F84530012B01D18C
:10295000022355E0FB68012283F84520FB68022230
:1029600083F84420FB68BA689A6200237B6134E0F4
:102970007B695B01BA6813443B613B694FF00042DD
:102980001A603B6944F2F4525A607B6940F2F45297
:1029900002FB03F37A6813441A463B699A60FB68AA
:1029A0009B69012B05D13B695B6823F000423B69C1
:1029B0005A603B68013B7A699A4208D27B690133CD
:1029C0005B01BA6813441A463B69DA6002E0BA68F0
:1029D0003B69DA607B6901337B617A693B689A42C3
:1029E000C6D3FB681A68BB6802F58052D360FB68E7
:1029F000012283F84420FB68002283F8452000234D
:102A000018461C37BD465DF8047B704780B487B01C
:102A100000AF7860396000237B610023FB600023F6
:102A20003B617B6893F84530012B01D10223CCE058
:102A30007B68012283F845207B68022283F84420CA
:102A40003B68002B09D17B68012283F844207B6816
:102A5000002283F845200123B7E07B68DB6A1B680E
:102A6000002B09DA7B68122283F844207B6800225D
:102A700083F845200123A8E03B6840F2F4529342DA
:102A800015D93B68544AA2FB03239B0A7B613A6831
:102A9000514BA3FB02139B0A40F2F45101FB03F3D9
:102AA000D31A002B05D07B6901337B6101E0012340
:102AB0007B617B69012B1CD17B68DB6A1A687B68B0
:102AC000DB6A42F040521A607B68DB6A3A68C2F304
:102AD0000C025A607B68DB6A1A687B68DB6A42F02A
:102AE00000421A607B68DB6ADB681A467B68DA6240
:102AF0004BE000233B6144E07B68DB6A1A687B683B
:102B0000DB6A22F040521A603B69002B07D17B68D8
:102B1000DB6A1A687B68DB6A42F080521A607B6865
:102B2000DB6A40F2F4525A607B69013B3A699A428F
:102B300016D17B68DB6A1A687B68DB6A42F0005258
:102B40001A607B69254A03FB02F23B68134403F2D7
:102B5000F453FB607B68DB6AFA68C2F30C025A60CC
:102B60007B68DB6A1A687B68DB6A42F000421A60A5
:102B70007B68DB6ADB681A467B68DA623B69013393
:102B80003B613A697B699A42B6D37B681B6803F55F
:102B900080535B6903F00403002B0DD07B681B6836
:102BA00003F580531A46042353617B681B6803F5C1
:102BB00080531A46002353607B68012283F8442027
:102BC0007B68002283F84520002318461C37BD4649
:102BD0005DF8047B704700BF0BB002AC0CFAFFFF3E
:102BE00080B485B000AF78600023FB607B6893F809
:102BF0004530012B01D1022374E07B68012283F868
:102C000045207B68022283F844205AE0FB680133A8
:102C1000FB607B689B6A1B6803F44073B3F5007F1D
:102C20000DD17B689A6A7B681A637B6801229A637C
:102C30007B689B6ADB681A467B689A6241E07B6826
:102C40009B6A1B6803F44073002B0BD17B689B6B62
:102C50005A1C7B689A637B689B6ADB681A467B68B0
:102C60009A622EE07B689A6A7B685A637B689B6BEA
:102C70005A1C7B689A637B689B6B012B03D17B6832
:102C80009A6A7B681A637B689B6A1B681B0CC3F398
:102C90000D031A1F7B68DA637B681B6B9A687B687D
:102CA0001A647B689B6ADB681A467B689A627B6859
:102CB000012283F844207B68002283F8452000230A
:102CC00010E07B689B6A1B68002B02DBFB68032B10
:102CD0009CD97B68012283F844207B68002283F81A
:102CE0004520012318461437BD465DF8047B704724
:102CF00080B582B000AF78607B681B6803F58053B5
:102D00005B6903F04003402B12D178681DF0F6FB9D
:102D10007B681B6803F580531A46402353617B6828
:102D2000012283F844207B68002283F845201AE0C2
:102D30007B681B6803F580535B6903F00103012B7B
:102D400011D1786800F038F87B681B6803F5805370
:102D50001A46012353617B68012283F844207B6873
:102D6000002283F845207B681B6803F580531A46D0
:102D70004FF4803353617B681B6803F580535B69B4
:102D800003F40043B3F5004F12D178681DF0D8FB6F
:102D90007B681B6803F580531A464FF40043536168
:102DA0007B68012283F844207B68002283F8452059
:102DB00000BF0837BD4680BD80B483B000AF7860E7
:102DC00000BF0C37BD465DF8047B704780B586B008
:102DD00000AFF8600B467A607B8100237B610023A3
:102DE0003B61FB6893F84430DBB2822B01D10223B4
:102DF00050E0FB68822283F84420FB681B681B6953
:102E00007B617B6903F01C037B61FB681B8ADB022F
:102E10009BB27A6913437B617B899B0103F4F8635E
:102E20007A6913437B617B6923F002037B617B69D1
:102E300043F001037B61FB681B687A691A611DF02E
:102E400043F8386115E01DF03FF802463B69D31A9C
:102E5000B3F5803F09D3FB68012283F84420FB6867
:102E6000002283F84520032314E0FB681B681B69DC
:102E70007B617B6903F00103002BE4D1FB681B68D5
:102E80005B699BB21A467B681A60FB68012283F873
:102E90004420002318461837BD4680BD80B586B053
:102EA00000AFF8600B467A607B8100237B610023D2
:102EB0003B61FB6893F84430DBB2422B01D1022323
:102EC0004EE0FB68422283F84420FB681B681B69C4
:102ED0007B617B6903F01C037B61FB681B8ADB025F
:102EE0009BB27A6913437B617B899B0103F4F8638E
:102EF0007A6913437B617B6943F002037B617B69E1
:102F000043F001037B617B689AB2FB681B685A61DE
:102F1000FB681B687A691A611CF0D6FF386115E0FE
:102F20001CF0D2FF02463B69D31AB3F5803F09D3A8
:102F3000FB68012283F84420FB68002283F84520C7
:102F400003230DE0FB681B681B697B617B6903F051
:102F50000103002BE4D1FB68012283F84420002305
:102F600018461837BD4680BD80B582B000AF786086
:102F70007B6893F84530012B01D102231FE07B6869
:102F8000012283F845207B68022283F84420786878
:102F900000F01AFA786800F034FA786800F07AFAEB
:102FA000786800F04BFA786800F05EFA7B680122DE
:102FB00083F844207B68002283F8452000231846CC
:102FC0000837BD4680BD000080B5B0B000AF786066
:102FD00039600023C7F8BC303B68002B07D07B6802
:102FE0004FF40062DA607B684FF480429A600023FD
:102FF000BB640023FB6400233B6500237B65002347
:10300000BB650023FB657B68DB69002B03D14FF4B4
:1030100080633B6601E000233B664FF400737B66F0
:103020000023BB660023FB6600233B674FF0004391
:103030007B670023BB674023FB670023C7F8803012
:103040000023C7F884300023C7F888300023C7F86E
:103050008C300023C7F890300023C7F89430002349
:10306000C7F898300023C7F89C308023C7F8A030F9
:103070000023C7F8A4300023C7F8A8300023C7F8FE
:10308000AC300023C7F8B0300023C7F8B4300023B9
:10309000C7F8B8307B681B681B68C7F8BC30D7F826
:1030A000BC20AB4B1340C7F8BC30BA6CFB6C1A4366
:1030B0003B6D1A437B6D1A437B689B681A43BB6D5B
:1030C0001A43FB6D1A437B68DB681A433B6E1A4355
:1030D0007B6E1A43BB6E1A43FB6E1A433B6F13435E
:1030E000D7F8BC201343C7F8BC307B681B68D7F8FF
:1030F000BC201A607B681B681B68C7F8BC300120C5
:103100001CF0E9FE7B681B68D7F8BC201A607A6F58
:10311000BB6F1A43FB6F1A43D7F880301A43D7F8B6
:1031200084301A43D7F888301A43D7F88C3042EAF3
:103130000301D7F890207B681B680A435A607B68BC
:103140001B685B68C7F8BC3001201CF0C4FE7B68BC
:103150001B68D7F8BC205A607B681B68D7F894209E
:103160009A607B681B68D7F89820DA607B681B68D8
:103170009B69C7F8BC30D7F8BC204FF641731340A9
:10318000C7F8BC30D7F89C301A04D7F8A0301A43DF
:10319000D7F8A4301A43D7F8A8301A43D7F8AC3080
:1031A0001A43D7F8B0301343D7F8BC201343C7F8FD
:1031B000BC307B681B68D7F8BC209A617B681B68B1
:1031C0009B69C7F8BC3001201CF085FE7B681B683A
:1031D000D7F8BC209A61D7F8B410D7F8B8207B682C
:1031E0001B680A43DA617B681B68DB69C7F8BC307F
:1031F00001201CF070FE7B681B68D7F8BC20DA61E8
:103200000023BB604FF00073FB6000233B614FF471
:1032100000137B610023BB610023FB6100233B6241
:1032200000237B620423BB624FF00073FB624FF408
:1032300080333B634FF480037B634FF40053BB63E5
:103240008023FB6300233B6400237B647B681B6853
:1032500003F580539B69C7F8BC30D7F8BC203D4BC1
:103260001340C7F8BC30BA68FB681A433B691A437D
:103270007B691A43BB691A43FB691A433B6A1A43C9
:103280007B6A1A43BB6A1343D7F8BC201343C7F8C1
:10329000BC307B681B6803F580531A46D7F8BC30F6
:1032A00093617B681B6803F580539B69C7F8BC304A
:1032B00001201CF010FE7B681B6803F580531A4642
:1032C000D7F8BC309361FA6A3B6B1A437B6B1A43A5
:1032D000BB6B1A43FB6B1A433B6C9B001A437B6C22
:1032E00013437A68126843F4000302F580521360B6
:1032F0007B681B6803F580531B68C7F8BC3001204E
:103300001CF0E9FD7B681B6803F580531A46D7F86B
:10331000BC3013607B689B69012B0DD17B681B68F7
:1033200003F58053DB697A68126843F4803343F015
:10333000400302F58052D3617B685B691A46002125
:10334000786800F009F800BFC037BD4680BD00BFF7
:103350000F8120FF233FDEF880B487B000AFF86014
:10336000B9607A607B6805331B781B027A68043287
:10337000127813437B61BA68114B13441A467B6978
:1033800013607B6803331B781A067B6802331B7853
:103390001B041A437B6801331B781B0213437A68B2
:1033A000127813437B61BA68064B13441A467B6953
:1033B000136000BF1C37BD465DF8047B704700BF3B
:1033C000408002404480024080B584B000AF786005
:1033D0000023FB607B681B681A687B681B6842F0EF
:1033E00008021A607B681B681B68FB60012000F004
:1033F00077F87B681B68FA681A6000BF1037BD4613
:1034000080BD80B584B000AF78600023FB607B682E
:103410001B681A687B681B6842F004021A607B68AC
:103420001B681B68FB60012000F05AF87B681B6872
:10343000FA681A6000BF1037BD4680BD80B483B003
:1034400000AF78607B681B6803F580539B697A68DE
:10345000126843F4005302F58052936100BF0C37A9
:10346000BD465DF8047B704780B483B000AF7860E0
:103470007B681B6803F580539B697A68126843F088
:10348000020302F58052936100BF0C37BD465DF820
:10349000047B704780B584B000AF78600023FB6088
:1034A0007B681B6803F580539B697A68126843F454
:1034B000801302F5805293617B681B6803F580538B
:1034C0009B69FB60012000F00BF87B681A68FB68C1
:1034D00002F58052936100BF1037BD4680BD0000E9
:1034E00080B485B000AF78600B4B1B680B4AA2FB21
:1034F00003235B0A7A6802FB03F3FB6000BFFB68EF
:103500005A1EFA60002BF9D100BF00BF1437BD4628
:103510005DF8047B704700BF00000020D34D6210AF
:1035200080B586B000AFF860B960C7E90023012319
:10353000FB75234B1B7E012B01D102233BE0204B6B
:1035400001221A764CF2503000F070F80346FB75F9
:10355000FB7D002B2BD1FB68002B05D13B78194656
:10356000B86800F01BF916E0FB68012B05D13B8819
:103570001946B86800F0EEF80DE0FB68022B05D1A3
:103580003B681946B86800F0C3F804E0D7E90023A7
:10359000B86800F08BF84CF2503000F047F8034662
:1035A000FB75084B1B69074A23F001031361044BA9
:1035B00000221A76FB7D18461837BD4680BD00BF35
:1035C00080510020003C024080B483B000AF002353
:1035D000FB710B4B1B69002B0BDA094B094A5A6034
:1035E000074B094A5A60064B1B69002B01DA01237D
:1035F000FB71FB7918460C37BD465DF8047B7047BC
:10360000003C024023016745AB89EFCD80B400AF99
:10361000054B1B69044A43F000431361002318461D
:10362000BD465DF8047B7047003C024080B584B025
:1036300000AF78600023FB601A4B0022DA611CF0B7
:1036400043FCF86010E07B68B3F1FF3F0CD07B686F
:10365000002B07D01CF038FC0246FB68D31A7A68AE
:103660009A4201D2032319E00F4BDB6803F4803345
:10367000002BE8D10C4BDB6803F00103002B02D0D8
:10368000094B0122DA60084BDB6803F0F203002BE0
:1036900003D000F0A5F8012300E0002318461037FE
:1036A000BD4680BD80510020003C024080B485B002
:1036B00000AFF860C7E90023144B1B69134A23F4D9
:1036C00040731361114B1B69104A43F4407313613B
:1036D0000E4B1B690D4A43F001031361FB683A6806
:1036E0001A60BFF36F8F00BFD7E900014FF00002EF
:1036F0004FF000030A000023F968043113460B6001
:1037000000BF1437BD465DF8047B7047003C0240A3
:1037100080B483B000AF786039600D4B1B690C4AF0
:1037200023F4407313610A4B1B69094A43F4007385
:103730001361074B1B69064A43F0010313617B6861
:103740003A681A6000BF0C37BD465DF8047B7047CD
:10375000003C024080B483B000AF78600B467B80B1
:103760000D4B1B690C4A23F4407313610A4B1B6910
:10377000094A43F480731361074B1B69064A43F0FF
:10378000010313617B687A881A8000BF0C37BD463D
:103790005DF8047B704700BF003C024080B483B0FA
:1037A00000AF78600B46FB700C4B1B690B4A23F48F
:1037B00040731361094B094A1B691361074B1B696D
:1037C000064A43F0010313617B68FA781A7000BF60
:1037D0000C37BD465DF8047B704700BF003C0240DB
:1037E00080B400AF274BDB6803F01003002B08D038
:1037F000254BDB6943F01003234AD361214B102290
:10380000DA60204BDB6803F02003002B08D01E4B4E
:10381000DB6943F008031C4AD3611A4B2022DA60AB
:10382000184BDB6803F04003002B08D0164BDB6914
:1038300043F00403144AD361124B4022DA60114B67
:10384000DB6803F08003002B08D00F4BDB6943F0EB
:1038500002030D4AD3610B4B8022DA60094BDB680F
:1038600003F00203002B08D0074BDB6943F0200371
:10387000054AD361034B0222DA6000BFBD465DF802
:10388000047B7047003C02408051002080B584B02A
:1038900000AF786039600123FB730023BB60314BBC
:1038A0001B7E012B01D1022358E02E4B01221A76F8
:1038B0004CF25030FFF7BAFE0346FB73FB7B002B44
:1038C00048D13B684FF0FF321A607B681B68012BC0
:1038D00015D17B681B69DAB27B685B6819461046B4
:1038E00000F044F84CF25030FFF7A0FE0346FB73A3
:1038F0001D4B1B691C4A23F00403136128E07B68FD
:103900009B68BB601CE07B681B69DBB21946B8682A
:1039100000F050F84CF25030FFF788FE0346FB737E
:10392000114B1B69104A23F0FA031361FB7B002B38
:1039300003D03B68BA681A600AE0BB680133BB6019
:103940007B68DA687B689B681344BA689A42DAD36A
:1039500000F078F8034B00221A76FB7B18461037EC
:10396000BD4680BD80510020003C024080B483B041
:1039700000AF03463960FB710D4B1B690C4A23F401
:10398000407313610A4B1B69094A43F00403136136
:10399000074B1A69FB791B021343054A43F4803332
:1039A000136100BF0C37BD465DF8047B704700BF54
:1039B000003C024080B485B000AF78600B46FB70DD
:1039C0000023FB60FB78002B02D10023FB6010E09A
:1039D000FB78012B03D14FF48073FB6009E0FB7887
:1039E000022B03D14FF40073FB6002E04FF44073ED
:1039F000FB60134B1B69124A23F440731361104B95
:103A00001A690F49FB6813430B610D4B1B690C4A84
:103A100023F0F80313610A4B1A697B68DB00134338
:103A2000074A43F002031361054B1B69044A43F440
:103A30008033136100BF1437BD465DF8047B7047C7
:103A4000003C024080B400AF204B1B6803F40073BD
:103A5000002B17D01D4B1B681C4A23F40073136006
:103A60001A4B1B68194A43F400631360174B1B6819
:103A7000164A23F400631360144B1B68134A43F483
:103A800000731360114B1B6803F48063002B17D085
:103A90000E4B1B680D4A23F4806313600B4B1B68AD
:103AA0000A4A43F480531360084B1B68074A23F407
:103AB00080531360054B1B68044A43F48063136012
:103AC00000BFBD465DF8047B704700BF003C02406C
:103AD00080B489B000AF7860396000237B61002337
:103AE0003B610023BB610023FB616BE10122FB69A9
:103AF00002FA03F37B613B681B687A6913403B6100
:103B00003A697B699A4240F05A813B685B68012BB5
:103B10000BD03B685B68022B07D03B685B68112BBE
:103B200003D03B685B68122B30D17B689B68BB611C
:103B3000FB695B00032202FA03F3DB43BA6913401B
:103B4000BB613B68DA68FB695B0002FA03F3BA69A0
:103B50001343BB617B68BA699A607B685B68BB6131
:103B60000122FB6902FA03F3DB43BA691340BB612C
:103B70003B685B681B0903F00102FB6902FA03F36F
:103B8000BA691343BB617B68BA695A607B68DB68BA
:103B9000BB61FB695B00032202FA03F3DB43BA69F2
:103BA0001340BB613B689A68FB695B0002FA03F350
:103BB000BA691343BB617B68BA69DA603B685B68CA
:103BC000022B03D03B685B68122B23D1FB69DA0818
:103BD0007B68083253F82230BB61FB6903F00703AE
:103BE0009B000F2202FA03F3DB43BA691340BB6167
:103BF0003B681A69FB6903F007039B0002FA03F3B1
:103C0000BA691343BB61FB69DA087B680832B9699A
:103C100043F822107B681B68BB61FB695B000322D1
:103C200002FA03F3DB43BA691340BB613B685B688C
:103C300003F00302FB695B0002FA03F3BA69134362
:103C4000BB617B68BA691A603B685B6803F08053AC
:103C5000002B00F0B4800023FB60604B5B6C5F4A7C
:103C600043F4804353645D4B5B6C03F48043FB601F
:103C7000FB685B4AFB699B08023352F82330BB6147
:103C8000FB6903F003039B000F2202FA03F3DB43FB
:103C9000BA691340BB617B68524A93422BD07B6860
:103CA000514A934225D07B68504A93421FD07B688B
:103CB0004F4A934219D07B684E4A934213D07B6897
:103CC0004D4A93420DD07B684C4A934207D07B68A3
:103CD0004B4A934201D107230EE008230CE0062350
:103CE0000AE0052308E0042306E0032304E002239E
:103CF00002E0012300E00023FA6902F003029200CF
:103D00009340BA691343BB613549FB699B08023391
:103D1000BA6941F823203B4B1B68BB613B69DB431D
:103D2000BA691340BB613B685B6803F48033002BC6
:103D300003D0BA693B691343BB61324ABB69136064
:103D4000304B5B68BB613B69DB43BA691340BB61C5
:103D50003B685B6803F40033002B03D0BA693B690E
:103D60001343BB61274ABB695360264B9B68BB6109
:103D70003B69DB43BA691340BB613B685B6803F492
:103D80008013002B03D0BA693B691343BB611D4A02
:103D9000BB6993601B4BDB68BB613B69DB43BA6962
:103DA0001340BB613B685B6803F40013002B03D036
:103DB000BA693B691343BB61124ABB69D360FB69B3
:103DC0000133FB61FB690F2B7FF690AE00BF00BF94
:103DD0002437BD465DF8047B704700BF00380240C1
:103DE0000038014000000240000402400008024088
:103DF000000C024000100240001402400018024073
:103E0000001C0240003C014080B487B000AF7860E5
:103E1000396000233B610023FB600023BB6000236B
:103E20007B61CDE001227B6902FA03F33B613A68D2
:103E30003B691340FB60FA683B699A4240F0BD80E1
:103E4000654A7B699B08023352F82330BB607B696B
:103E500003F003039B000F2202FA03F3BA68134036
:103E6000BB607B685D4A93422BD07B685C4A93427F
:103E700025D07B685B4A93421FD07B685A4A9342A5
:103E800019D07B68594A934213D07B68584A9342B1
:103E90000DD07B68574A934207D07B68564A9342BD
:103EA00001D107230EE008230CE006230AE00523D6
:103EB00008E0042306E0032304E0022302E00123D8
:103EC00000E000237A6902F0030292009340BA688E
:103ED0009A4232D1494B1A68FB68DB434749134089
:103EE0000B60464B5A68FB68DB43444913404B6008
:103EF000424B9A68FB68DB43404913408B603F4B61
:103F0000DA68FB68DB433D491340CB607B6903F013
:103F100003039B000F2202FA03F3BB602E4A7B6966
:103F20009B08023352F82310BB68DA432A487B69A6
:103F30009B080A40023340F823207B681A687B699B
:103F40005B00032101FA03F3DB431A407B681A602C
:103F50007B69DA087B68083253F822107B6903F02A
:103F600007039B000F2202FA03F3DB437A69D208AE
:103F700019407B68083243F822107B68DA687B6955
:103F80005B00032101FA03F3DB431A407B68DA602C
:103F90007B685A6801217B6901FA03F3DB431A400D
:103FA0007B685A607B689A687B695B00032101FA31
:103FB00003F3DB431A407B689A607B6901337B61C2
:103FC0007B690F2B7FF62EAF00BF00BF1C37BD46AD
:103FD0005DF8047B704700BF0038014000000240DC
:103FE0000004024000080240000C024000100240A1
:103FF0000014024000180240001C0240003C014036
:1040000080B485B000AF78600B467B807B681A690E
:104010007B881340002B02D00123FB7301E00023B7
:10402000FB73FB7B18461437BD465DF8047B704775
:1040300080B483B000AF78600B467B8013467B7002
:104040007B78002B03D07A887B689A6103E07B88B9
:104050001A047B689A6100BF0C37BD465DF8047B8B
:104060007047000080B582B000AF0346FB80084B6C
:104070005A69FB881340002B06D0054AFB88536120
:10408000FB8818461DF03CF800BF0837BD4680BDD0
:10409000003C014080B584B000AF78607B68002BA5
:1040A00001D101232BE07B681B684CF6CC421A60DF
:1040B0007B681B6845F255521A607B681B687A68FA
:1040C00052685A607B681B687A6892689A601BF035
:1040D000FBFEF86008E01BF0F7FE0246FB68D31A0F
:1040E000302B01D903230AE07B681B68DB68002BB7
:1040F000F1D17B681B684AF6AA221A600023184691
:104100001037BD4680BD80B483B000AF78607B6857
:104110001B684AF6AA221A60002318460C37BD46CF
:104120005DF8047B7047000080B400AF034B0122B0
:104130001A6000BFBD465DF8047B704720000E4248
:1041400080B586B000AF78607B68002B01D1012379
:104150005EE27B681B6803F00103002B75D0884B7F
:104160009B6803F00C03042B0CD0854B9B6803F079
:104170000C03082B12D1824B5B6803F48003B3F568
:10418000800F0BD17E4B1B6803F40033002B5BD0F8
:104190007B685B68002B57D1012339E27B685B6841
:1041A000B3F5803F06D1764B1B68754A43F48033E4
:1041B00013601DE07B685B68B3F5A02F0CD1704BDA
:1041C0001B686F4A43F4802313606D4B1B686C4A75
:1041D00043F4803313600BE0694B1B68684A23F497
:1041E00080331360664B1B68654A23F48023136099
:1041F0007B685B68002B13D01BF066FE386108E01B
:104200001BF062FE02463B69D31A642B01D90323DB
:10421000FEE15B4B1B6803F40033002BF0D014E08D
:104220001BF052FE386108E01BF04EFE02463B696F
:10423000D31A642B01D90323EAE1514B1B6803F421
:104240000033002BF0D100E000BF7B681B6803F057
:104250000203002B63D04A4B9B6803F00C03002B36
:104260000BD0474B9B6803F00C03082B1CD1444B2D
:104270005B6803F48003002B16D1414B1B6803F0ED
:104280000203002B05D07B68DB68012B01D00123E2
:10429000BEE13B4B1B6823F0F8027B681B69DB0027
:1042A000374913430B603AE07B68DB68002B20D072
:1042B000344B01221A601BF007FE386108E01BF046
:1042C00003FE02463B69D31A022B01D903239FE167
:1042D0002B4B1B6803F00203002BF0D0284B1B680C
:1042E00023F0F8027B681B69DB00254913430B6050
:1042F00015E0244B00221A601BF0E6FD386108E04F
:104300001BF0E2FD02463B69D31A022B01D90323BD
:104310007EE11B4B1B6803F00203002BF0D17B688E
:104320001B6803F00803002B36D07B685B69002B09
:1043300016D0154B01221A601BF0C6FD386108E04B
:104340001BF0C2FD02463B69D31A022B01D903239D
:104350005EE10B4B5B6F03F00203002BF0D01BE020
:10436000094B00221A601BF0AFFD38610EE01BF014
:10437000ABFD02463B69D31A022B07D9032347E161
:104380000038024000004742800E4742884B5B6F76
:1043900003F00203002BEAD17B681B6803F00403DF
:1043A000002B00F097800023FB75814B1B6C03F002
:1043B0008053002B0FD10023BB607D4B1B6C7C4ACC
:1043C00043F0805313647A4B1B6C03F08053BB6043
:1043D000BB680123FB75774B1B6803F48073002BCC
:1043E00018D1744B1B68734A43F4807313601BF03D
:1043F0006BFD386108E01BF067FD02463B69D31A8C
:10440000022B01D9032303E16A4B1B6803F4807379
:10441000002BF0D07B689B68012B06D1644B1B6F8F
:10442000634A43F0010313671CE07B689B68052B1C
:104430000CD15F4B1B6F5E4A43F0040313675C4B68
:104440001B6F5B4A43F0010313670BE0584B1B6F74
:10445000574A23F001031367554B1B6F544A23F04F
:10446000040313677B689B68002B15D01BF02CFDA1
:1044700038610AE01BF028FD02463B69D31A41F27D
:104480008832934201D90323C2E0494B1B6F03F0EA
:104490000203002BEED014E01BF016FD38610AE099
:1044A0001BF012FD02463B69D31A41F28832934257
:1044B00001D90323ACE03E4B1B6F03F00203002B3A
:1044C000EED1FB7D012B05D1394B1B6C384A23F013
:1044D000805313647B689B69002B00F09880344BF9
:1044E0009B6803F00C03082B5CD07B689B69022B54
:1044F00041D1314B00221A601BF0E6FC386108E024
:104500001BF0E2FC02463B69D31A022B01D90323BC
:104510007EE0274B1B6803F00073002BF0D17B6813
:10452000DA697B681B6A1A437B685B6A9B011A43E2
:104530007B689B6A5B08013B1B041A437B68DB6A50
:104540001B061B4913434B601B4B01221A601BF0D7
:10455000BBFC386108E01BF0B7FC02463B69D31A8C
:10456000022B01D9032353E0114B1B6803F00073A6
:10457000002BF0D04BE0104B00221A601BF0A4FC83
:10458000386108E01BF0A0FC02463B69D31A022BFD
:1045900001D903233CE0064B1B6803F00073002B9A
:1045A000F0D134E07B689B69012B07D101232FE018
:1045B000003802400070004060004742164B5B68C4
:1045C000FB60FB6803F480027B68DB699A421CD1C4
:1045D000FB6803F03F027B681B6A9A4215D1FA68B8
:1045E00047F6C07313407A68526A93420DD1FB6854
:1045F00003F440327B689B6A9A4206D1FB6803F061
:1046000070627B68DB6A9A4201D0012300E00023DC
:1046100018461837BD4680BD0038024080B584B0CA
:1046200000AF786039607B68002B01D10123CCE0BA
:10463000684B1B6803F00F033A689A420CD9654B2C
:104640003A68D2B21A70634B1B6803F00F033A68E2
:104650009A4201D00123B8E07B681B6803F0020393
:10466000002B20D07B681B6803F00403002B05D0CF
:10467000594B9B68584A43F4E05393607B681B682E
:1046800003F00803002B05D0534B9B68524A43F4B8
:1046900060439360504B9B6823F0F0027B689B68FB
:1046A0004D4913438B607B681B6803F00103002BAB
:1046B00044D07B685B68012B07D1474B1B6803F430
:1046C0000033002B19D101237FE07B685B68022B4C
:1046D00003D07B685B68032B07D13F4B1B6803F05B
:1046E0000073002B09D101236FE03B4B1B6803F0E3
:1046F0000203002B01D1012367E0374B9B6823F0B5
:1047000003027B685B68344913438B601BF0DCFB5E
:10471000F8600AE01BF0D8FB0246FB68D31A41F2AE
:104720008832934201D903234FE02B4B9B6803F05F
:104730000C027B685B689B009A42EBD1254B1B689F
:1047400003F00F033A689A420CD2224B3A68D2B275
:104750001A70204B1B6803F00F033A689A4201D08D
:10476000012332E07B681B6803F00403002B08D0B0
:10477000194B9B6823F4E0527B68DB6816491343AE
:104780008B607B681B6803F00803002B09D0124B79
:104790009B6823F460427B681B69DB000E4913436E
:1047A0008B6000F021F802460B4B9B681B0903F05D
:1047B0000F030A49CB5C22FA03F3094A1360094B41
:1047C0001B6818461BF0A7FB002318461037BD4690
:1047D00080BD00BF003C02400038024078420C0817
:1047E00000000020040000202DE9B04F90B000AF81
:1047F00000237B630023FB6300233B630023BB6335
:10480000594B9B6803F00C03082B0DD0082B00F2CA
:10481000A180002B02D0042B03D09BE0534BBB6341
:104820009BE0534BBB6398E04F4B5B6803F03F0347
:104830007B634D4B5B6803F48003002B28D04A4B0D
:104840005B689B0900223B627A623B6AC3F3080003
:104850000021474B03FB01F2002300FB03F3134449
:10486000434AA0FB0212FA620A46BA62FA6A134489
:10487000FB627B6B0022BB61FA61D7E90623D7E9B3
:104880000A01FCF7DBFA02460B461346FB6353E0D2
:10489000354B5B689B0900223B617A613B69C3F33E
:1048A000080A4FF0000B52465B464FF000004FF0F5
:1048B0000001590141EAD261500102460B46B2EBB8
:1048C0000A0863EB0B094FF000024FF000034FEAB8
:1048D000891343EA98634FEA8812B2EB080463EB4A
:1048E00009054FF000024FF00003EB0043EA547358
:1048F000E20014461D4614EB0A033B6045EB0B0334
:104900007B604FF000024FF00003D7E900452946D5
:104910008B02214643EA915321468A0210461946EA
:104920007B6B0022BB60FA60D7E90223FCF786FAB2
:1049300002460B461346FB630B4B5B681B0C03F0F4
:10494000030301335B003B63FA6B3B6BB2FBF3F396
:10495000BB6302E0054BBB6300BFBB6B184640372F
:10496000BD46BDE8B08F00BF003802400024F4000F
:1049700040787D0180B400AF034B1B681846BD46EC
:104980005DF8047B704700BF0000002080B500AFD9
:10499000FFF7F0FF0246054B9B689B0A03F00703F5
:1049A0000349CB5C22FA03F3184680BD003802406D
:1049B00088420C0880B500AFFFF7DCFF0246054BCC
:1049C0009B685B0B03F007030349CB5C22FA03F3FC
:1049D000184680BD0038024088420C0880B483B07D
:1049E00000AF786039607B680F221A60124B9B68B9
:1049F00003F003027B685A600F4B9B6803F0F002E0
:104A00007B689A600C4B9B6803F4E0527B68DA6029
:104A1000094B9B68DB0803F4E0527B681A61074B83
:104A20001B6803F00F023B681A6000BF0C37BD46DD
:104A30005DF8047B704700BF00380240003C024034
:104A400080B586B000AF786000237B6100233B61B6
:104A50007B681B6803F00103002B05D17B681B6892
:104A600003F00403002B35D0624B00221A601BF0C8
:104A70002BFA786108E01BF027FA02467B69D31A0B
:104A8000022B01D90323B0E05B4B1B6803F00063EA
:104A9000002BF0D17B685B689A017B689B681B07E1
:104AA00055491343C1F88430524B01221A601BF060
:104AB0000BFA786108E01BF007FA02467B69D31A0B
:104AC000022B01D9032390E04B4B1B6803F00063DA
:104AD000002BF0D07B681B6803F00203002B00F072
:104AE00083800023FB60444B1B6C434A43F080539C
:104AF0001364414B1B6C03F08053FB60FB683F4B1E
:104B00001B683E4A43F4807313601BF0DDF9786143
:104B100008E01BF0D9F902467B69D31A022B01D9B0
:104B2000032362E0354B1B6803F48073002BF0D045
:104B3000314B1B6F03F440733B613B69002B2FD05B
:104B40007B68DB6803F440733A699A4228D02A4BA9
:104B50001B6F23F440733B61294B01221A60284BE1
:104B600000221A60244A3B691367234B1B6F03F032
:104B70000103012B14D11BF0A7F978610AE01BF0A7
:104B8000A3F902467B69D31A41F28832934201D9D4
:104B900003232AE0184B1B6F03F00203002BEED017
:104BA0007B68DB6803F44073B3F5407F0DD1124B93
:104BB0009B6823F4F8127B68DB6823F0704323F4CE
:104BC00040730D4913438B6005E00B4B9B680A4A09
:104BD00023F4F8139360084B1A6F7B68DB68C3F308
:104BE0000B03054913430B67002318461837BD46CE
:104BF00080BD00BF6800474200380240007000409E
:104C0000400E474280B582B000AF78607B68002BD1
:104C100001D1012383E07B685B7FDBB2002B05D1F0
:104C20007B6800221A77786819F0A2F97B68022263
:104C30005A777B681B68CA225A627B681B685322BA
:104C40005A62786800F0A8FA0346002B08D07B6807
:104C50001B68FF225A627B6804225A7701235EE0B8
:104C60007B681B689B687A68126823F4E00323F072
:104C7000400393607B681B6899687B685A687B680F
:104C80001B691A437B685B691A437B681B680A438C
:104C90009A607B681B687A68D2681A617B681B68B7
:104CA00019697B689B681A047B681B680A431A6150
:104CB0007B681B68DA687B681B6822F08002DA6018
:104CC0007B681B689B6803F02003002B0ED178687B
:104CD00000F03AFA0346002B08D07B681B68FF22DD
:104CE0005A627B6804225A77012318E07B681B68AC
:104CF0001A6C7B681B6822F480221A647B681B682C
:104D0000196C7B689A697B681B680A431A647B6824
:104D10001B68FF225A627B6801225A7700231846DB
:104D20000837BD4680BD90B587B000AFF860B96068
:104D30007A6000237B61FB681B7F012B01D102237A
:104D4000AAE0FB6801221A77FB6802225A777B6887
:104D5000002B26D1FB681B689B6803F04003002BE7
:104D600002D1BB680022DA70BB681B78184600F0DD
:104D70003FFA03461C04BB685B78184600F038FA1B
:104D800003461B021C43BB689B78184600F030FAB0
:104D9000034644EA0302BB68DB781B0413437B61D0
:104DA00018E0FB681B689B6803F04003002B02D1EE
:104DB000BB680022DA70BB681B781A04BB685B789A
:104DC0001B021343BA6892781A43BB68DB781B0452
:104DD00013437B61FB681B68CA225A62FB681B682D
:104DE00053225A62F86800F0D7F90346002B0BD023
:104DF000FB681B68FF225A62FB6804225A77FB6833
:104E000000221A77012347E0FB681A687B6903F0E8
:104E10007F3323F0FE431360FB681B689A68FB68CE
:104E20001B6822F480229A60FB681B689968BB6843
:104E3000DA68BB681B691A43FB681B680A439A60FF
:104E4000FB681B68DA68FB681B6822F08002DA6086
:104E5000FB681B689B6803F02003002B11D1F868E6
:104E600000F072F90346002B0BD0FB681B68FF2291
:104E70005A62FB6804225A77FB6800221A770123E2
:104E80000AE0FB681B68FF225A62FB6801225A771E
:104E9000FB6800221A77002318461C37BD4690BDD8
:104EA00080B586B000AFF860B9607A6000237B619E
:104EB000FB681B689A6ABB685A60FB681B681B69C1
:104EC000C3F30E02BB689A60FB681B681B6803F0A3
:104ED0007F3323F0FE437B617B691B0CDBB203F065
:104EE0003F03DAB2BB681A707B691B0ADBB203F0BE
:104EF0007F03DAB2BB685A707B69DBB203F07F03D1
:104F0000DAB2BB689A707B691B0CDBB203F040031A
:104F1000DAB2BB68DA707B68002B1AD1BB681B78E9
:104F2000184600F083F903461A46BB681A70BB683E
:104F30005B78184600F07AF903461A46BB685A7047
:104F4000BB689B78184600F071F903461A46BB68A7
:104F50009A70002318461837BD4680BD90B587B0BB
:104F600000AFF860B9607A6000237B61FB681B7F4B
:104F7000012B01D1022394E0FB6801221A77FB6820
:104F800002225A777B68002B0ED1BB685B7803F056
:104F90001003002B08D0BB685B7823F01003DBB252
:104FA0000A33DAB2BB685A707B68002B1CD1BB682D
:104FB000DB78184600F01CF903461C04BB685B78DC
:104FC000184600F015F903461B021C43BB689B788A
:104FD000184600F00DF9034644EA0302BB681B784B
:104FE0005B0313437B610EE0BB68DB781A04BB688C
:104FF0005B781B021343BA6892781A43BB681B782C
:105000005B0313437B61FB681B68CA225A62FB681F
:105010001B6853225A62F86800F0BEF80346002B62
:105020000BD0FB681B68FF225A62FB6804225A7788
:10503000FB6800221A77012333E0FB681A687B695A
:1050400023F07F4323F0C0035360FB681B68DA68DA
:10505000FB681B6822F08002DA60FB681B689B68B3
:1050600003F02003002B11D1F86800F06DF803461F
:10507000002B0BD0FB681B68FF225A62FB680422DE
:105080005A77FB6800221A7701230AE0FB681B6845
:10509000FF225A62FB6801225A77FB6800221A77C6
:1050A000002318461C37BD4690BD80B586B000AFC2
:1050B000F860B9607A6000237B61FB681B685B68FD
:1050C00023F07F4323F0C0037B617B691B0CDAB2C2
:1050D000BB68DA707B691B0ADBB203F01F03DAB22C
:1050E000BB685A707B69DBB203F03F03DAB2BB687E
:1050F0009A707B695B0BDBB203F00703DAB2BB6823
:105100001A707B68002B1AD1BB68DB78184600F058
:105110008DF803461A46BB68DA70BB685B781846A0
:1051200000F084F803461A46BB685A70BB689B7847
:10513000184600F07BF803461A46BB689A700023B5
:1051400018461837BD4680BD80B584B000AF786082
:105150000023FB607B681B68DA687B681B6822F0B1
:10516000A002DA601AF0B0FEF86009E01AF0ACFEB6
:105170000246FB68D31AB3F57A7F01D9032307E00F
:105180007B681B68DB6803F02003002BEED0002354
:1051900018461037BD4680BD80B584B000AF78603A
:1051A0000023FB607B681B68DB6803F04003002B77
:1051B00019D17B681B684FF0FF32DA601AF084FE69
:1051C000F86009E01AF080FE0246FB68D31AB3F5D6
:1051D0007A7F01D9032307E07B681B68DB6803F053
:1051E0004003002BEED0002318461037BD4680BD8B
:1051F00080B485B000AF0346FB710023FB6005E07F
:10520000FB680133FB60FB790A3BFB71FB79092BDF
:10521000F6D8FB68DBB21B01DAB2FB791343DBB2D1
:1052200018461437BD465DF8047B704780B485B0DE
:1052300000AF0346FB710023FB60FB791B09DBB267
:105240001A4613469B0013445B00FB60FB7903F096
:105250000F03DAB2FB68DBB21344DBB21846143733
:10526000BD465DF8047B704780B487B000AFF8603E
:10527000B9607A6000237B61FB681B6850337B61F7
:10528000BB689B007A6913447B617B697A681A600A
:1052900000BF1C37BD465DF8047B704780B485B005
:1052A00000AF786039600023FB607B681B68503377
:1052B000FB603B689B00FA681344FB60FB681B685B
:1052C00018461437BD465DF8047B704780B582B040
:1052D00000AF78607B68002B01D1012356E07B682A
:1052E00000229A627B6893F85130DBB2002B06D122
:1052F0007B68002283F85020786818F0B7FE7B683E
:10530000022283F851207B681B681A687B681B683F
:1053100022F040021A607B685A687B689B681A43D7
:105320007B68DB681A437B681B691A437B685B698F
:105330001A437B689B6903F400731A437B68DB693B
:105340001A437B681B6A42EA03017B689A6A7B689E
:105350001B680A431A607B689B691B0C03F00401FD
:105360007B685A6A7B681B680A435A607B681B68C3
:10537000DA697B681B6822F40062DA617B680022CC
:105380005A657B68012283F85120002318460837AC
:10539000BD4680BD80B588B000AFF860B9603B60A5
:1053A0001346FB800023FB77FB6893F85030012BFA
:1053B00001D102231EE1FB68012283F850201AF07C
:1053C00083FDB861FB88FB82FB6893F85130DBB248
:1053D000012B02D00223FB7703E1BB68002B02D034
:1053E000FB88002B02D10123FB77FAE0FB68032244
:1053F00083F85120FB6800225A65FB68BA681A637B
:10540000FB68FA889A86FB68FA88DA86FB680022CD
:105410009A63FB6800229A87FB680022DA87FB68A0
:1054200000225A64FB6800221A64FB689B68B3F58B
:10543000004F07D1FB681B681A68FB681B6842F4C1
:1054400080421A60FB681B681B6803F04003402B16
:1054500007D0FB681B681A68FB681B6842F04002B3
:105460001A60FB68DB68B3F5006F4BD1FB685B68C3
:10547000002B02D0FB8A012B3ED1FB681B6B1A88E4
:10548000FB681B68DA60FB681B6B9A1CFB681A637D
:10549000FB68DB8E9BB2013B9AB2FB68DA862BE09D
:1054A000FB681B689B6803F00203022B12D1FB68A8
:1054B0001B6B1A88FB681B68DA60FB681B6B9A1C05
:1054C000FB681A63FB68DB8E9BB2013B9AB2FB68F8
:1054D000DA8611E01AF0F8FC0246BB69D31A3A6882
:1054E0009A4203D83B68B3F1FF3F02D13B68002BDF
:1054F00002D10323FB7774E0FB68DB8E9BB2002BA9
:10550000CED14CE0FB685B68002B02D0FB8A012BFC
:1055100040D1FB681A6BFB681B680C3312781A7059
:10552000FB681B6B5A1CFB681A63FB68DB8E9BB223
:10553000013B9AB2FB68DA862CE0FB681B689B682B
:1055400003F00203022B13D1FB681A6BFB681B6884
:105550000C3312781A70FB681B6B5A1CFB681A63B9
:10556000FB68DB8E9BB2013B9AB2FB68DA8611E0E6
:105570001AF0AAFC0246BB69D31A3A689A4203D8C9
:105580003B68B3F1FF3F02D13B68002B02D10323FC
:10559000FB7726E0FB68DB8E9BB2002BCDD1BA698E
:1055A0003968F86800F0A4FF0346002B02D0FB68BE
:1055B00020225A65FB689B68002B0AD100233B61BF
:1055C000FB681B68DB683B61FB681B689B683B6191
:1055D0003B69FB685B6D002B02D00123FB7700E089
:1055E00000BFFB68012283F85120FB68002283F88A
:1055F0005020FB7F18462037BD4680BD80B588B05F
:1056000002AFF860B9603B601346FB800023FB7576
:10561000FB685B68B3F5827F12D1FB689B68002B47
:105620000ED1FB68042283F85120FA883B6800936E
:105630001346BA68B968F86800F0E9F80346E2E092
:10564000FB6893F85030012B01D10223DBE0FB68AB
:10565000012283F850201AF037FC3861FB6893F878
:105660005130DBB2012B02D00223FB75C2E0BB68D4
:10567000002B02D0FB88002B02D10123FB75B9E07F
:10568000FB68042283F85120FB6800225A65FB68FE
:10569000BA689A63FB68FA889A87FB68FA88DA879F
:1056A000FB6800221A63FB6800229A86FB680022CE
:1056B000DA86FB6800221A64FB6800225A64FB68E1
:1056C0009B68B3F5004F07D1FB681B681A68FB683D
:1056D0001B6822F480421A60FB681B681B6803F099
:1056E0004003402B07D0FB681B681A68FB681B68E7
:1056F00042F040021A60FB68DB68002B62D12EE0AA
:10570000FB681B689B6803F00103012B15D1FB6844
:105710001B6803F10C02FB689B6B1278D2B21A7003
:10572000FB689B6B5A1CFB689A63FB68DB8F9BB220
:10573000013B9AB2FB68DA8711E01AF0C5FB02461A
:105740003B69D31A3A689A4203D83B68B3F1FF3FEA
:1057500002D13B68002B02D10323FB754AE0FB68B2
:10576000DB8F9BB2002BCBD131E0FB681B689B68C1
:1057700003F00103012B13D1FB681B68DA68FB6897
:105780009B6B92B21A80FB689B6B9A1CFB689A63B6
:10579000FB68DB8F9BB2013B9AB2FB68DA8711E0B2
:1057A0001AF092FB02463B69D31A3A689A4203D830
:1057B0003B68B3F1FF3F02D13B68002B02D10323CA
:1057C000FB7517E0FB68DB8F9BB2002BCDD13A69EC
:1057D0003968F86800F026FE0346002B02D0FB680B
:1057E00020225A65FB685B6D002B02D00123FB75FC
:1057F00000E000BFFB68012283F85120FB68002213
:1058000083F85020FB7D18461837BD4680BD80B513
:105810008CB000AFF860B9607A607B800123FB62D6
:10582000002387F82B30FB6893F85030012B01D10F
:1058300002238AE1FB68012283F850201AF044FB1E
:105840007862FB6893F8513087F82330FB685B6817
:10585000FB617B887B8397F82330012B0FD0FB699A
:10586000B3F5827F07D1FB689B68002B03D197F8C3
:105870002330042B03D0022387F82B305BE1BB6875
:10588000002B05D07B68002B02D07B88002B03D136
:10589000012387F82B304EE1FB6893F85130DBB2DF
:1058A000042B03D0FB68052283F85120FB680022FB
:1058B0005A65FB687A689A63FB687A88DA87FB68BE
:1058C0007A889A87FB68BA681A63FB687A88DA86EE
:1058D000FB687A889A86FB6800221A64FB680022BB
:1058E0005A64FB681B681B6803F04003402B07D019
:1058F000FB681B681A68FB681B6842F040021A606C
:10590000FB68DB68B3F5006F78D1FB685B68002B40
:1059100002D07B8B012B66D1FB681B6B1A88FB685E
:105920001B68DA60FB681B6B9A1CFB681A63FB68D8
:10593000DB8E9BB2013B9AB2FB68DA8653E0FB68D0
:105940001B689B6803F00203022B1BD1FB68DB8EF4
:105950009BB2002B16D0FB6A012B13D1FB681B6B8B
:105960001A88FB681B68DA60FB681B6B9A1CFB6873
:105970001A63FB68DB8E9BB2013B9AB2FB68DA8646
:105980000023FB62FB681B689B6803F00103012B8B
:1059900019D1FB68DB8F9BB2002B14D0FB681B680E
:1059A000DA68FB689B6B92B21A80FB689B6B9A1C4F
:1059B000FB689A63FB68DB8F9BB2013B9AB2FB6882
:1059C000DA870123FB621AF07FFA02467B6AD31A58
:1059D000BA6B9A4207D8BB6BB3F1FF3F03D00323E6
:1059E00087F82B30A7E0FB68DB8E9BB2002BA6D19B
:1059F000FB68DB8F9BB2002BA1D17CE0FB685B686E
:105A0000002B02D07B8B012B6BD1FB681A6BFB68E0
:105A10001B680C3312781A70FB681B6B5A1CFB68EE
:105A20001A63FB68DB8E9BB2013B9AB2FB68DA8695
:105A300057E0FB681B689B6803F00203022B1CD134
:105A4000FB68DB8E9BB2002B17D0FB6A012B14D1B5
:105A5000FB681A6BFB681B680C3312781A70FB68C2
:105A60001B6B5A1CFB681A63FB68DB8E9BB2013B05
:105A70009AB2FB68DA860023FB62FB681B689B68AE
:105A800003F00103012B19D1FB68DB8F9BB2002BC4
:105A900014D0FB681B68DA68FB689B6BD2B21A7083
:105AA000FB689B6B5A1CFB689A63FB68DB8F9BB29D
:105AB000013B9AB2FB68DA870123FB621AF004FA11
:105AC00002467B6AD31ABA6B9A4203D8BB6BB3F116
:105AD000FF3F02D1BB6B002B03D1032387F82B3090
